:1000000009C021C042C0E3C01EC01DC01CC01BC02F
:100010001AC019C011241FBECFE9CDBF10E0A0E661
:10002000B0E0ECE6F2E002C005900D92A236B10716
:10003000D9F720E0A2E6B0E001C01D92AA36B207CF
:10004000E1F701D111C1DCCF17BAB89AB99ABA98C1
:10005000BB9A18BA0895C198C09860E027E030E0D4
:1000600046B34470022E01C0440F0A94EAF7642B91
:10007000C19AC1982150310998F7C09AFC01608358
:100080000895C39A0895C39808951F920F920FB6CA
:100090000F9211242F933F934F935F936F937F930E
:1000A0008F939F93AF93BF93EF93FF93CF93DF9380
:1000B0001F92CDB7DD27CE010196CDDF89818970F2
:1000C00039F081E08093600088B398E0892788BB8D
:1000D000898185FF07C082E08093600088B398E043
:1000E000892788BB8981847829F010926300109257
:1000F0006500C7DF898184FF08C089E080936300C1
:100100001092650010926700BEDF0F90DF91CF91D3
:10011000FF91EF91BF91AF919F918F917F916F91DF
:100120005F914F913F912F910F900FBE0F901F90B5
:100130001895809165008F5F8093650080916400C1
:100140008F5F809364008C3339F4809163008F5FFC
:10015000809363001092640008959091630098303A
:10016000A4F580916000813019F0823021F00FC039
:10017000809368000AC08AE08093680092302CF077
:10018000943014F484E101C08EE180936900909171
:1001900065008091680098170CF473CF74DF20918C
:1001A0006500332727FD30954091680080916900F4
:1001B000992787FD9095840F911D47FD9A952817E3
:1001C000390724F01092650008955DCF08951F92BD
:1001D0000F920FB60F9211242F933F934F935F937B
:1001E0006F937F938F939F93AF93BF93EF93FF93FF
:1001F000809162008F5F80936200893498F08091D3
:1002000067008C3339F488B398E0892788BB109253
:1002100067008FDF809167008F5F809367009DDFAD
:1002200010926200FF91EF91BF91AF919F918F91DA
:100230007F916F915F914F913F912F910F900FBEE2
:100240000F901F90189500DF8BB780628BBFAC9A20
:1002500083B7836083BF89B7826089BF789485B78D
:0C026000877E806185BFFFCFF894FFCF40
:02026C0002008E
:00000001FF
