:100000000C9434000C943E000C943E000C943E0082
:100010000C943E000C943E000C9440000C943E0066
:100020000C943E000C943E000C943E000C943E0058
:100030000C943E000C943E000C943E000C943E0048
:100040000C943E000C943E000C943E000C943E0038
:100050000C943E000C943E000C943E000C943E0028
:100060000C943E000C943E0011241FBECFEFD8E04C
:10007000DEBFCDBF0E9478000C948B000C94000072
:100080001F920F920FB60F9211248F939F9385B1F9
:1000900091E0892785B99F918F910F900FBE0F90A6
:1000A0001F90189504B603FE0AC084B7877F84BFEB
:1000B00080916000886180936000109260000895D4
:1000C000E0E6F0E080818861808386E480830895A3
:1000D000F89415BE109269001DBA82E080936E00FC
:1000E00010926400789408958FEF84B915B808953C
:1000F0000E947400F8940E9452000E94600078945C
:1001000083B7817F846083BF83B7816083BF889515
:0A01100083B78E7FF8CFF894FFCF7D
:00000001FF
