:1000000012C02BC029C028C027C026C025C024C0CC
:1000100023C022C021C020C01FC01EC01DC01CC0E4
:100020001BC01AC0A7C111241FBECFEDCDBF10E069
:10003000A0E6B0E0EEE7F6E002C005900D92A6372C
:10004000B107D9F720E0A6E7B0E001C01D92A439BE
:10005000B207E1F7B3D211C3D3CF1F920F920FB6FD
:100060000F9211242F933F934F935F936F937F933E
:100070008F939F93AF93BF93EF93FF9380917E00F5
:10008000811109C081B5846081BD81B5806481BD65
:1000900081E080937E0080917E008823D9F080915A
:1000A00074008F5F8093740080917C0090917D003C
:1000B00090937B0080937A00409174006EE181E020
:1000C00004D22FE788E391E0215080409040E1F78F
:1000D00000C00000FF91EF91BF91AF919F918F9170
:1000E0007F916F915F914F913F912F910F900FBE34
:1000F0000F901F90189532E03093860084E0809333
:100100008A0095E09093870026E020938B0030933F
:100110008D0033E0309384002093830090938E0011
:100120008093900081E0809389001092930087E093
:10013000809388008FEF87BB81BB21B381E090E083
:100140000090860002C0880F991F0A94E2F78095FC
:10015000822381BB1ABA18BA12BA0895809174002A
:10016000833091F030F4813059F08230C1F485E071
:1001700010C0853069F050F0863089F48CE309C0F6
:1001800093E09093790008C08AE003C084E101C045
:100190008EE18093790081E080937700089510923A
:1001A00077000895262F90E064E670E022D2622F57
:1001B00070E03CD280E190E0E0E0772768177907B3
:1001C0002CF0EF5F4096E630C9F7E0E0F0E0E05A4F
:1001D000FF4F81E090E09C01008002C0220F331F9E
:1001E0000A94E2F70090880002C0880F991F0A94D1
:1001F000E2F7822B88BB33D180918F0081113DC102
:10020000089590E021E030E0981729F162B3A90148
:1002100000908B0002C0440F551F0A94E2F7642B34
:1002200062BBEFE9FFE03197F1F700C0000062B375
:10023000A90100908B0002C0440F551F0A94E2F7F9
:100240004095462342BBEFE9FFE03197F1F700C04C
:1002500000009F5FD9CF089581B58F7B81BD089540
:100260001F93CF93DF93C82F10927D0010927C00D4
:1002700010927B0010927A0010928200DFEF11E062
:100280008091760081113FC0809182006C2F8ADFBF
:100290002091820030E0ED2FFF27E7FDF095E21777
:1002A000F30751F0809182004C2F481B64E6809147
:1002B0008F000BD1D0918200809182008C1700F3C7
:1002C0008EE19FDF4C2F64E680918F00FED010936B
:1002D000760080918000882399F24091800064E646
:1002E00080918F00F2D04091740064E680918F007D
:1002F000ECD02FEF80E792E0215080409040E1F772
:1003000000C00000BDCFB9D0D3D0109279008FEFDC
:1003100080937400109277001092760010927E0005
:1003200010927D0010927C0010927B0010927A0057
:1003300010927F0010928000DF91CF911F918CCF9F
:10034000809182008F5F8093820080918C008F5F0C
:1003500080938C0080918C00882359F080918C00D0
:100360008C3339F4809185008F5F809385001092E3
:100370008C0008951F920F920FB60F9211242F93A5
:100380003F934F935F936F937F938F939F93AF931D
:10039000BF93EF93FF9380917C0090917D00019635
:1003A00090937D0080937C0080917C0090917D00F3
:1003B0008B3C91052CF010927D0010927C00C0DFE8
:1003C00080917C0090917D0020917A0030917B009B
:1003D000821B930B909392008093910080919100E7
:1003E0009091920004972CF080917700811101C0C8
:1003F000B5DEFF91EF91BF91AF919F918F917F916A
:100400006F915F914F913F912F910F900FBE0F9081
:100410001F901895E82FF0E0E859FF4F408120E049
:1004200030E080E050E061E070E0FA01022E02C0AE
:10043000F595E7950A94E2F7E0FF0BC0F901E05A61
:10044000FF4FDB01008002C0AA0FBB1F0A94E2F736
:100450008A2B2F5F3F4F2830310539F7089522B39B
:1004600081E090E000908A0002C0880F991F0A94F2
:10047000E2F78095822382BB089522B381E090E069
:1004800000908A0002C0880F991F0A94E2F7282B77
:1004900022BB089522B381E090E00090870002C063
:1004A000880F991F0A94E2F78095822382BB0895F2
:1004B00022B381E090E00090870002C0880F991F6E
:1004C0000A94E2F7282B22BB0895FF920F931F9303
:1004D000CF93DF93082F162F842F6AE09BD0D82F5D
:1004E000F92EC0E0C11721F1DD2359F08D2F92DFE5
:1004F00088BBD0DFC2DF8FE193E00197F1F700C046
:1005000000008F2D87DF88BBAADFD2DF8FE193E069
:100510000197F1F700C00000013041F4AEDFC8DF01
:100520008FE193E00197F1F700C00000CF5FDACFD1
:10053000BFDFDF91CF911F910F91FF909ECF89B9BF
:1005400092B986E083B9423009F41B9A662311F010
:1005500082E08BB980E28AB98AB188618AB908954C
:1005600012B883E389B988E18AB986E083B908952E
:100570005D9BFECF8CB908958DED9FEF0000019734
:100580000097E1F708958BB1807808958BB1807260
:1005900008955F9BFECF8CB108955D9BFECF8CB913
:1005A00008955F990AC081E4F8DFE6DFE5DFE4DF64
:1005B000E3DFE2DFE1DFE0DFF4CF0895D1DF81E4C4
:1005C000ECDF8FEC97E00197F1F700C0000082E4C8
:1005D000E4DF8FEC97E00197F1F700C000009FEF98
:1005E00020E782E0915020408040E1F700C0000009
:1005F000E6CF0024552704C0080E591F880F991F05
:10060000009729F076956795B8F37105B9F7802DB5
:10061000952F0895991B79E004C0991F961708F04B
:10062000961B881F7A95C9F78095089597FB072E2A
:1006300016F4009406D077FD08D00BD007FC05D047
:100640003EF4909581959F4F0895709561957F4FE9
:100650000895AA1BBB1B51E107C0AA1FBB1FA61709
:10066000B70710F0A61BB70B881F991F5A95A9F75B
:0E06700080959095BC01CD010895F894FFCFC0
:10067E0002030605040100073F065B4F666D7C070B
:06068E007F670080FF0001
:00000001FF
