:100000000EC028C028C026C025C024C023C022C0DE
:1000100021C020C01FC01EC021C11CC01BC0112494
:100020001FBECFE5D2E0DEBFCDBF10E0A0E6B0E05E
:10003000EEE3F6E002C005900D92A237B107D9F7C2
:1000400020E0A2E7B0E001C01D92A538B207E1F7B9
:100050009BD2F3C2D5CF1F920F920FB60F921124ED
:100060008F939F9380917B008F5F80937B00809123
:100070007B0080FF24C080917A00811109C081B586
:10008000816081BD81B5806481BD81E080937A000B
:1000900080917A00882399F0809179008F5F809316
:1000A0007900809174009091750090937300809313
:1000B00072008FE59AEE0197F1F700C000009F9162
:1000C0008F910F900FBE0F901F9018958FEF87BBE9
:1000D00047B381E090E09C010090700002C0220FC5
:1000E000331F0A94E2F7422B47BB47B39C010090B1
:1000F0006F0002C0220F331F0A94E2F7422B47BB66
:1001000047B39C0100907C0002C0220F331F0A9469
:10011000E2F7422B47BB47B39C010090710002C03D
:10012000220F331F0A94E2F72095242327BB27B31D
:1001300000906C0002C0880F991F0A94E2F7809526
:10014000822387BB18BA0895CF93DF93D82FC0E0DE
:10015000CD17B9F061E082E074D160E083E071D145
:100160008FE99FE00197F1F700C0000060E082E0B6
:1001700068D18FE99FE00197F1F700C00000CF5FE1
:10018000E7CFDF91CF91089581B58F7B81BD089531
:100190001F93CF93DF93C82F1092750010927400B5
:1001A000109273001092720010927D00DFEF11E048
:1001B00080917600811122C020917D0030E06D2F6A
:1001C000772767FD70956217730751F080917D0066
:1001D0004C2F481B68EC809184006ED1D0917D003B
:1001E00080917D008C1720F34C2F68EC8091840067
:1001F00063D18EE1A9DF10937600DACF10927800F8
:1002000010927900109277001092760010927A0086
:100210001092750010927400109273001092720088
:10022000DF91CF911F91B0CF80917D008F5F809340
:100230007D00809182008F5F809382008091820098
:10024000882359F0809182008C3339F480917E00AC
:100250008F5F80937E001092820008951F920F920C
:100260000FB60F9211242F933F934F935F936F9389
:100270007F938F939F93AF93BF93CF93EF93FF930E
:100280008091740090917500843691052CF0109245
:10029000750010927400C8DF809174009091750011
:1002A0002091720030917300821B930B9093810018
:1002B0008093800080918000909181004F970CF492
:1002C00047C080917700811143C0C0917900C3304D
:1002D00019F158F4C130A9F0C230C1F542E064E62A
:1002E00080918400E9D085E01DC0C53041F100F166
:1002F000C63061F546E064E680918400DDD08CE391
:1003000011C041E064E680918400D6D083E0809300
:100310007800C09377001CC043E064E680918400BD
:10032000CBD08AE08093780081E08093770010C082
:1003300044E064E680918400BFD084E1F3CF45E0DF
:1003400064E680918400B8D08EE1ECCF1092770003
:100350008091740090917500019690937500809340
:100360007400FF91EF91CF91BF91AF919F918F91C9
:100370007F916F915F914F913F912F910F900FBEA1
:100380000F901F9018958093830060937F000895CD
:1003900021E030E0F90102C0EE0FFF1F8A95E2F77D
:1003A000CF01AE2F809501C0220F6A95EAF7F22F98
:1003B000E22FE09527E030E050E0BA01022E02C0C3
:1003C000759567950A94E2F798B360FF02C09A2B7F
:1003D00001C0982398BB98B39F2B98BB98B39E23DA
:1003E00098BB2150310948F708951F93CF93DF93AD
:1003F000182F462F88B3C1E0D0E09E010090700016
:1004000002C0220F331F0A94E2F72095282328BB4D
:1004100060916F0080917C00BBDF412F60916F0085
:1004200080917C00B5DF88B30090700002C0CC0FD3
:10043000DD1F0A94E2F78C2B88BBDF91CF911F91CF
:100440000895962F282F277082958F7019F081308C
:1004500099F02BC080917F0061E070E0022E01C016
:10046000660F0A94EAF7913011F4682B02C0609588
:100470006823809183001BC060917F0030918300CE
:10048000913049F481E090E0022E01C0880F0A9477
:10049000EAF7832B0CC081E090E0022E01C0880FA8
:1004A0000A94EAF78095832302C080E060E080939D
:1004B000830060937F0099CFCF92DF92EF92FF92FB
:1004C0000F931F93CF93DF93C82ED62E842F6AE00D
:1004D000A8D0F82EE12C092F10E0005A1F4FED1480
:1004E000E1F0F11002C08BE0F82ECF2DD0E0C05A21
:1004F000DF4F6DEF888179DF6EEFF801808175DF66
:10050000CC2049F063E0888170DF8FEC97E00197A1
:10051000F1F700C00000E394E2CFEF2DF0E0E05AE5
:10052000FF4F63E08081DF91CF911F910F91FF908A
:10053000EF90DF90CF9059CF21E030E0A90102C0C9
:10054000440F551F6A95E2F7BA01742FF90102C0F2
:10055000EE0FFF1F8A95E2F7609547E050E080E0DC
:1005600098B3972B98BB26B330E02E233F23042E5D
:1005700001C0220F0A94EAF7822B98B3962398BB06
:100580004150510968F70895A1DD8BB780628BBF98
:1005900025B381E090E00090710002C0880F991FA0
:1005A0000A94E2F7282B25BB789485B7877E806173
:1005B00085BF60E080E019DF10928400C1E0D0E0E8
:1005C00028B3CE0100906E0002C0880F991F0A94D4
:1005D000E2F7282B28BB8FE99FE00197F1F700C0D5
:1005E000000028B3CE0100906E0002C0880F991F52
:1005F0000A94E2F78095822388BB60916D00809118
:100600006C009ADF80FF02C0C09A01C0C0989FE7CB
:1006100028E381E0915020408040E1F700C00000D5
:10062000CFCF991B79E004C0991F961708F0961B4D
:0E063000881F7A95C9F780950895F894FFCF3A
:10063E007E06BCAEC6EADA26FEE601000301020122
:02064E000204A4
:00000001FF
