:1000000009C019C018C017C016C015C014C013C04D
:1000100012C011C011241FBECFE9CDBF10E0A0E671
:10002000B0E0E8EDF0E002C005900D92A837B1070E
:10003000D9F74DD04FC0E4CF17BABA9AB99AB89A47
:1000400018BA0895CF93DF931F92CDB7DD27898328
:10005000C198C29887E090E0298130E0082E02C064
:10006000359527950A94E2F720FF02C0C09A01C097
:10007000C098C19AC198019778F7C29A0F90DF9102
:10008000CF9108950F931F93CF93DF93C0E6D0E0F5
:100090000BE610E0F80181918F01D4DF8881D2DF77
:1000A000FFE722E382E0F15020408040E1F700C00A
:1000B000000090E00537190769F72196E0E0CA369D
:1000C000DE0731F7DF91CF911F910F910895B4DFD3
:0800D000D9DFFECFF894FFCF49
:1000D800FA907CDC96CEE698FE9E007E06BCAEC604
:0800E800EADA26FEE601000041
:00000001FF
