:1000000009C021C04CC11FC01EC01DC01CC01BC0E8
:100010001AC019C011241FBECFE9CDBF10E0A0E661
:10002000B0E0E6E7F3E002C005900D92A837B10713
:10003000D9F720E0A8E7B0E001C01D92AD37B207C4
:10004000E1F76DD196C1DCCF17BABA9AB99AB89ACE
:10005000BC98BB9818BA0895CF93DF931F92CDB781
:10006000DD278983C198C29887E090E0298130E03C
:10007000082E02C0359527950A94E2F720FF02C0AA
:10008000C09A01C0C098C19AC198019778F7C29AE6
:100090000F90DF91CF910895FF920F931F93CF930D
:1000A000DF93CDB7DD27C550CDBFFC01BB9AC39A06
:1000B0008FE99CE80197F1F700C00000C3988FE139
:1000C0009CE10197F1F700C00000B39B02C08BE5F3
:1000D00007C0C39A90E49A95F1F7B39903C08CE5F1
:1000E000808353C0BB98DE011196AE014A5F5F4F1B
:1000F00001E010E087E090E0F12C29EC30E0B399CA
:1001000007C02150310921153105C9F78DE5E8CF28
:1001100023E12A95F1F70000B39B07C09801082E50
:1001200001C0220F0A94EAF7F22A29EC30E0B39BCF
:1001300007C02150310921153105C9F78EE5D0CF0F
:100140000197D8F6FD92A417B507A1F6BB9AC39AFA
:100150008FE99CE80197F1F700C0000029819B819D
:100160008A81820F890F3C81830F3D8183130DC0EB
:10017000992321F09083FB01208305C081E68083D1
:1001800082E6FB01808380E001C08FEFCB5FCDBFB3
:10019000DF91CF911F910F91FF9008951F93CF93FF
:1001A000DF9300D0CDB7DD271A821982BE016F5FC1
:1001B0007F4FCE01029670DF9A81209176001AE07F
:1001C0008F3F09F440C0892F612FBAD0E92FFF2754
:1001D000E7FDF095E459FF4F8081822B3DDF8A8156
:1001E000612FAED0E82FFF27E7FDF095E05AFF4FD3
:1001F000808132DF2FEF8AEF94E0215080409040E1
:10020000E1F700C000008981612F9AD0E92FFF2714
:10021000E7FDF095E459FF4F80811EDF8981612F52
:100220008FD0E82FFF27E7FDF095E05AFF4F808140
:1002300013DF2FEF8AEF94E0215080409040E1F7E8
:1002400000C0000017C0892F612F7AD0E92FFF2747
:10025000E7FDF095E459FF4F8081822BFDDE8A8116
:10026000612F6ED0E82FFF27E7FDF095E05AFF4F92
:100270008081F2DE80917700EFDE80916B00ECDE12
:100280002FEF8AEF94E0215080409040E1F700C0CA
:100290000000CE5FCDBFDF91CF911F9108951F92D7
:1002A0000F920FB60F9211242F933F934F935F93AA
:1002B0006F937F938F939F93AF93BF93EF93FF932E
:1002C0006DDFFF91EF91BF91AF919F918F917F91E2
:1002D0006F915F914F913F912F910F900FBE0F90B3
:1002E0001F901895CF93DF931F92CDB7DD2719820A
:1002F000BE016F5F7F4FD0DE0F90DF91CF910895E9
:10030000CF93DF931F92CDB7DD271982BC01CE01B9
:100310000196C2DE0F90DF91CF910895BDCE94DE9D
:100320008BB780628BBFAC9A789485B7877E8061EB
:1003300085BF85B7806285BF889585B78F7DF8CFEB
:1003400087FB082E062687FD819567FD619505D000
:100350000EF4919507FC81950895991B79E004C0EE
:10036000991F961708F0961B881F7A95C9F78095F4
:060370000895F894FFCF90
:10037600FA907CDC96CEE698FE9E01007E06BCAE28
:08038600C6EADA26FEE60100DA
:00000001FF
