:1000000009C019C018C017C016C015C014C013C04D
:1000100012C011C011241FBECFE9CDBF10E0A0E671
:10002000B0E0E8EBF2E002C005900D92A837B1070E
:10003000D9F7C9D03FC1E4CF17BABA9AB99AB89ADA
:10004000BC9ABB9818BA0895CF93DF931F92CDB78F
:10005000DD278983C198C29887E090E0298130E04C
:10006000082E02C0359527950A94E2F720FF02C0BA
:10007000C09A01C0C098C19AC198019778F7C29AF6
:100080000F90DF91CF910895FF920F931F93CF931D
:10009000DF93CDB7DD27C550CDBFFC01BB9AC39A16
:1000A0008FE99CE80197F1F700C00000C3988FE149
:1000B0009CE10197F1F700C00000B39B02C08BE503
:1000C00007C0C39A90E49A95F1F7B39903C08CE501
:1000D000808353C0BB98DE011196AE014A5F5F4F2B
:1000E00001E010E087E090E0F12C29EC30E0B399DA
:1000F00007C02150310921153105C9F78DE5E8CF39
:1001000023E12A95F1F70000B39B07C09801082E60
:1001100001C0220F0A94EAF7F22A29EC30E0B39BDF
:1001200007C02150310921153105C9F78EE5D0CF1F
:100130000197D8F6FD92A417B507A1F6BB9AC39A0A
:100140008FE99CE80197F1F700C0000029819B81AD
:100150008A81820F890F3C81830F3D8183130DC0FB
:10016000992321F09083FB01208305C081E68083E1
:1001700082E6FB01808380E001C08FEFCB5FCDBFC3
:10018000DF91CF911F910F91FF900895CF93DF934F
:100190001F92CDB7DD271982BE016F5F7F4F74DFDD
:1001A0000F90DF91CF910895CF93DF931F92CDB73A
:1001B000DD271982BC01CE01019666DF0F90DF9129
:1001C000CF91089561CFCF93DF9300D0CDB7DD27D6
:1001D0001A82198231DF1AE0BE016F5F7F4FCE01B4
:1001E000029652DF9A818F3F61F1892F612F49D0AA
:1001F000E92FFF27E7FDF095E459FF4F808124DFC9
:100200008A81612F3ED0E82FFF27E7FDF095E05A65
:10021000FF4F808119DF2FEF8AEF94E0215080405B
:100220009040E1F700C000008981612F2AD0E92FBA
:10023000FF27E7FDF095E459FF4F808105DF8981B5
:100240000CC0892F612F1DD0E92FFF27E7FDF09506
:10025000E459FF4F8081F8DE8A81612F12D0E82FA8
:10026000FF27E7FDF095E05AFF4F8081EDDE2FEF8D
:1002700082EA92E0215080409040E1F700C0000007
:10028000ABCF87FB082E062687FD819567FD61951C
:1002900005D00EF4919507FC81950895991B79E09E
:1002A00004C0991F961708F0961B881F7A95C9F706
:0802B00080950895F894FFCF3A
:1002B800FA907CDC96CEE698FE9E01007E06BCAEE7
:0802C800C6EADA26FEE6010099
:00000001FF
