:1000000009C016C015C015C013C012C011C010C061
:100010000FC00EC011241FBECFE9CDBF20E0A0E667
:10002000B0E001C01D92A136B207E1F71DD026C095
:10003000E7CF1F920F920FB60F9211248F939F93C9
:10004000809160008F5F80936000843230F088B3CD
:1000500091E0892788BB109260009F918F910F904B
:100060000FBE0F901F90189581E087BB83B7836008
:1000700083BF89B7826089BF7894FFCFF894FFCFA0
:00000001FF
