:1000000009C00EC02BC00CC00BC00AC009C008C07C
:1000100007C006C011241FBECFE9CDBF52D062C0B9
:10002000EFCF17BAB89AB99ABA98BB9A18BA089586
:10003000C198C09860E027E030E046B34470022EDB
:1000400001C0440F0A94EAF7642BC19AC198215069
:10005000310998F7C09AFC01608308951F920F92AE
:100060000FB60F9211242F933F934F935F936F938B
:100070007F938F939F93AF93BF93EF93FF93CF9310
:10008000DF931F92CDB7DD27CE010196D1DF8981A5
:1000900085FDC39A898184FDC3980F90DF91CF912C
:1000A000FF91EF91BF91AF919F918F917F916F9150
:1000B0005F914F913F912F910F900FBE0F901F9026
:1000C0001895AFDF8BB780628BBFAC9A789485B7F9
:1000D000877E806185BF85B7806285BF889585B73B
:0800E0008F7DF8CFF894FFCFEB
:00000001FF
