:1000000009C00EC00DC00CC00BC00AC009C008C09A
:1000100007C006C011241FBECFE9CDBF1FD034C01A
:10002000EFCF17BAB89AB99ABA98BB9A18BA089586
:10003000C198C09860E027E030E046B34470022EDB
:1000400001C0440F0A94EAF7642BC19AC198215069
:10005000310998F7C09AFC0160830895CF93DF932C
:100060001F92CDB7DD27DDDFCE010196E1DF89816B
:1000700085FDC39A898184FDC3988FE99CE8019727
:0C008000F1F700C00000F0CFF894FFCFB3
:00000001FF
