:1000000012C02CC02BC02AC029C028C027C026C0BF
:1000100025C024C023C022C021C020C01FC01EC0D4
:100020001DC01CC01BC011241FBECFE5D4E0DEBF25
:10003000CDBF10E0A0E6B0E0E8E4F6E002C0059035
:100040000D92A437B107D9F720E0A4E7B0E001C0D2
:100050001D92A538B207E1F7D1D2F4C2D1CF51E059
:1000600050937A0042E040937D0034E03093840066
:1000700025E020937E0096E09093780087E08093BF
:10008000750010927F00509377004093760043E014
:10009000409380003093820020937C0090938300F3
:1000A00080937B008FEF87BB81BB84BB18BA82BB78
:1000B00015BA109279000895E82FF0E0E859FF4F43
:1000C000408120E030E080E050E061E070E0FA0143
:1000D000022E02C0F595E7950A94E2F7E0FF0BC007
:1000E000F901E05AFF4FDB01008002C0AA0FBB1FDD
:1000F0000A94E2F78A2B2F5F3F4F2830310539F7FA
:10010000089522B381E090E00090750002C0880F4E
:10011000991F0A94E2F78095822382BB089522B347
:1001200081E090E00090750002C0880F991F0A944A
:10013000E2F7282B22BB089522B381E090E00090E3
:10014000780002C0880F991F0A94E2F780958223F5
:1001500082BB089522B381E090E00090780002C055
:10016000880F991F0A94E2F7282B22BB089522B327
:1001700081E090E000907E0002C0880F991F0A94F1
:10018000E2F78095822382BB089522B381E090E05C
:1001900000907E0002C0880F991F0A94E2F7282B76
:1001A00022BB089522B381E090E00090840002C059
:1001B000880F991F0A94E2F78095822382BB0895E5
:1001C00022B381E090E00090840002C0880F991F64
:1001D0000A94E2F7282B22BB0895BF92CF92DF92B8
:1001E000EF92FF920F931F93CF93DF93E82E8B0133
:1001F000FA01CA0168EE73E011D2AB01F62E68E194
:100200007CEF469F9001479F300D569F300D112483
:100210002E0F3F1FC90164E670E000D2D62EC9013F
:1002200044E6649F801991091124CAE0D0E0BE0120
:10023000F5D1C62ECF01BE01F1D1B82EC0E0D0E07D
:10024000C017D10709F44BC0FF2009F452C08F2D0D
:1002500033DF88BBA7DF99DF7DDF61DF81EE94E0CC
:100260000197F1F700C000008D2D26DF88BB7FDFEE
:10027000A7DF70DF54DF81EE94E00197F1F700C053
:100280000000FF2071F08C2D17DF88BB55DF98DF51
:100290007CDF45DF81EE94E00197F1F700C00000BC
:1002A00004C0D110F0CFC110EECF8B2D05DF88BB7D
:1002B00028DF50DF81EE94E00197F1F700C00000E5
:1002C00091E0E9120AC07CDF60DF44DF28DF8DEEB9
:1002D00092E00197F1F700C000002196B1CFDF91C5
:1002E000CF911F910F91FF90EF90DF90CF90BF9033
:1002F00016CFD110B9CFD7CF11B88DEF80B90895EF
:1003000094EA96BF06B607FEFDCF91B1987F98306C
:1003100011F0903179F483B984E886BF06B607FE00
:10032000FDCF91B1987F983119F081E0903419F4A4
:1003300080E0089581E0089524EA34E844E926BF86
:1003400006B607FEFDCF91B1987F983011F090313D
:10035000B1F783B936BF06B607FEFDCF91B1987FDE
:10036000903211F0983529F446BF06B604FCFDCF53
:10037000E6CF0895C5CF84E986BF06B604FCFDCF5D
:10038000089583B984E886BF06B607FEFDCF91B114
:10039000987F81E0983209F480E008951F93CF930D
:1003A000DF931F92CDB7DEB7182F80ED6983A8DFEA
:1003B000812FE7DF182F6981862FE3DF8983DBDF59
:1003C0008981810F0F90DF91CF911F91089584EC67
:1003D00086BF06B607FEFDCF83B1089584E886BFC9
:1003E00006B607FEFDCF83B108951F93CF93DF9329
:1003F0001F92CDB7DEB7182F80ED82DF812FC1DFCE
:10040000182F81ED7DDFEADF8983B5DF8981111146
:1004100088EC0F90DF91CF911F9108956AE0F2D0A0
:1004200020E1829F900D1124892F0895982F929595
:100430009F708F702AE0929F800D11240895CF92B3
:10044000EF920F931F93CF93DF9300D0CDB7DEB71A
:10045000162F2A834983E2DF682F80E09FDF812FF8
:10046000DDDF682F81E09ADF4981842FD7DF682F95
:1004700082E094DF2A81822FD1DF682F83E08EDF34
:10048000802FCCDF682F84E089DF8E2DC7DF682FB7
:1004900085E084DF8C2DC2DF682F86E00F900F90FF
:1004A000DF91CF911F910F91EF90CF9077CF6F9207
:1004B0007F928F929F92AF92BF92CF92DF92EF92F4
:1004C000FF920F931F93CF93DF93EC014B015A01DF
:1004D000390180E08ADF8F77A9DF888381E085DFBB
:1004E000A5DFF401808382E080DF8F739FDFF50159
:1004F00080838850893030F081E0809381001092B1
:10050000740005C01092810085E08093740083E040
:100510006CDF8CDFF301808384E067DF87DFF80125
:10052000808385E062DF82DFF701808386E05DDF24
:100530007DDFF6018083DF91CF911F910F91FF90B6
:10054000EF90DF90CF90BF90AF909F908F907F9073
:100550006F900895CF92DF92EF92FF920F931F93C7
:10056000CF93DF93CDB7DEB727970FB6F894DEBFF2
:100570000FBECDBFCE0101966C0101967C018E01AC
:100580000D5F1F4F9E012C5F3F4FAE014B5F5F4FD2
:10059000BE016A5F7F4F05968ADF8A814B8150E0FA
:1005A00094E6899F400D511D112464EF71E080E0B5
:1005B00014DE4C8150E04150510964EF71E080E05D
:1005C0000CDE8D814E8150E094E6899F400D511DD7
:1005D000112468E873E180E000DE80E090E0279677
:1005E0000FB6F894DEBF0FBECDBFDF91CF911F9144
:1005F0000F91FF90EF90DF90CF90089530DD7CDE7B
:10060000A9DFFECF991B79E004C0991F961708F067
:10061000961B881F7A95C9F780950895AA1BBB1B66
:1006200051E107C0AA1FBB1FA617B70710F0A61BF2
:10063000B70B881F991F5A95A9F780959095BC0113
:08064000CD010895F894FFCFED
:1006480000010203040506073F065B4F666D7C0741
:040658007F67008038
:00000001FF
