:100000000C9434000C9446000C9446000C9446006A
:100010000C9446000C9446000C9446000C94460048
:100020000C9446000C9446000C9446000C94460038
:100030000C9446000C9446000C9448000C94460026
:100040000C9446000C9446000C9446000C94460018
:100050000C9446000C9446000C9446000C94460008
:100060000C9446000C94460011241FBECFEFD8E03C
:10007000DEBFCDBF21E0A0E0B1E001C01D92A13004
:10008000B207E1F70E945C000C9472000C9400002F
:100090001F920F920FB60F9211248F939F9385B1E9
:1000A00091E0892785B9109200019F918F910F905F
:1000B0000FBE0F901F90189581E084B984B58260BF
:1000C00084BD8AE187BD80916E00826080936E005E
:1000D00085B5876085BD80916E00826080936E00DB
:0800E0007894FFCFF894FFCFE4
:00000001FF
